:100000000C945C000C946E000C946E000C946E00CA
:100010000C946E000C946E000C946E000C946E00A8
:100020000C946E000C946E000C946E000C946E0098
:100030000C946E000C946E000C946E000C946E0088
:100040000C94ED000C946E000C946E000C946E00F9
:100050000C946E000C946E000C946E000C946E0068
:100060000C946E000C946E00000000002400270029
:100070002A0000000000250028002B0004040404CE
:100080000404040402020202020203030303030342
:10009000010204081020408001020408102001021F
:1000A00004081020000000080002010000030407FB
:1000B000000000000000000011241FBECFEFD8E0B8
:1000C000DEBFCDBF21E0A0E0B1E001C01D92AB30AA
:1000D000B207E1F70E9437010C9415020C9400005E
:1000E00090E0FC01EC55FF4F2491FC01E057FF4FDD
:1000F0003491FC01E458FF4FE491EE23C9F0222330
:1001000039F0233001F1A8F4213019F1223029F11E
:10011000F0E0EE0FFF1FEE58FF4FA591B4918FB79F
:10012000F894EC91611126C030953E233C938FBF2B
:1001300008952730A9F02830C9F0243049F780917C
:1001400080008F7D03C0809180008F778093800036
:10015000DFCF84B58F7784BDDBCF84B58F7DFBCFB8
:100160008091B0008F778093B000D2CF8091B000A3
:100170008F7DF9CF3E2BDACFCF93DF9390E0FC0158
:10018000E057FF4F249184589F4FFC0184918823AE
:10019000D1F090E0880F991FFC01E859FF4FA5911D
:1001A000B491FC01EE58FF4FC591D49161110EC07E
:1001B0009FB7F8948C91E22FE0958E238C93288141
:1001C000E223E8839FBFDF91CF9108958FB7F89422
:1001D000EC91E22BEC938FBFF6CF1F920F920FB6EC
:1001E0000F9211242F933F938F939F93AF93BF93BD
:1001F0008091070190910801A0910901B0910A0135
:100200003091060123E0230F2D3758F50196A11DEB
:10021000B11D209306018093070190930801A093DC
:100220000901B0930A018091020190910301A0910C
:100230000401B09105010196A11DB11D8093020139
:1002400090930301A0930401B0930501BF91AF9176
:100250009F918F913F912F910F900FBE0F901F9004
:10026000189526E8230F0296A11DB11DD2CF7894D0
:1002700084B5826084BD84B5816084BD85B58260AB
:1002800085BD85B5816085BD80916E00816080935C
:100290006E001092810080918100826080938100C5
:1002A00080918100816080938100809180008160D5
:1002B000809380008091B10084608093B100809130
:1002C000B00081608093B00080917A008460809358
:1002D0007A0080917A00826080937A0080917A001F
:1002E000816080937A0080917A00806880937A00A0
:1002F0001092C10061E082E00E94BC0061E083E0F6
:100300000E94BC0061E085E00E94BC0060E08EE0DD
:100310000E94BC0080E4B82E99EAE92E90E0F92E04
:1003200000E010E0CC24CA94D12CB0927C008091E3
:100330007A00806480937A0080917A0086FDFCCFF9
:1003400090917800809179008927982789278115D5
:10035000924004F1D0920101C092000160E082E07D
:100360000E94700061E083E00E947000C091000173
:10037000D091010161E085E00E94BC00209779F4F2
:1003800060E085E00E9470000115110571F20E9485
:100390000000CBCF1092010110920001DFCFCF3FC0
:1003A000D10511F461E0EDCFF7018491833019F1AB
:1003B00040F48130B1F08230C9F0C038D10594F7F3
:1003C000DFCF873011F1883041F18430B1F780916F
:1003D0008000806280938000D0938B00C0938A005D
:1003E000D3CF84B5806884BDC7BDCECF84B58062CD
:1003F00084BDC8BDC9CF8091800080688093800093
:10040000D0938900C0938800BFCF8091B0008068EE
:100410008093B000C093B300B7CF8091B0008062EA
:0E0420008093B000C093B400AFCFF894FFCF2C
:00000001FF
